{
  "_format": "hh-sol-artifact-1",
  "contractName": "DoctorPatient",
  "sourceName": "contracts/DoctorPatient.sol",
  "abi": [
    {
      "inputs": [],
      "stateMutability": "nonpayable",
      "type": "constructor"
    },
    {
      "inputs": [
        {
          "internalType": "string",
          "name": "patientName",
          "type": "string"
        },
        {
          "internalType": "string",
          "name": "doctorName",
          "type": "string"
        }
      ],
      "name": "acceptbydocter",
      "outputs": [],
      "stateMutability": "nonpayable",
      "type": "function"
    },
    {
      "inputs": [
        {
          "internalType": "string",
          "name": "doctor",
          "type": "string"
        }
      ],
      "name": "addDoctor",
      "outputs": [],
      "stateMutability": "nonpayable",
      "type": "function"
    },
    {
      "inputs": [
        {
          "internalType": "string",
          "name": "lab",
          "type": "string"
        }
      ],
      "name": "addLab",
      "outputs": [],
      "stateMutability": "payable",
      "type": "function"
    },
    {
      "inputs": [
        {
          "internalType": "string",
          "name": "labName",
          "type": "string"
        },
        {
          "internalType": "string",
          "name": "patientName",
          "type": "string"
        }
      ],
      "name": "addLabToTrustedList",
      "outputs": [],
      "stateMutability": "nonpayable",
      "type": "function"
    },
    {
      "inputs": [
        {
          "internalType": "string",
          "name": "patientName",
          "type": "string"
        },
        {
          "internalType": "string",
          "name": "doctorName",
          "type": "string"
        }
      ],
      "name": "bookAppointment",
      "outputs": [],
      "stateMutability": "payable",
      "type": "function"
    },
    {
      "inputs": [],
      "name": "getAddress",
      "outputs": [
        {
          "internalType": "address",
          "name": "",
          "type": "address"
        }
      ],
      "stateMutability": "view",
      "type": "function"
    },
    {
      "inputs": [
        {
          "internalType": "string",
          "name": "patientName",
          "type": "string"
        },
        {
          "internalType": "string",
          "name": "doctorName",
          "type": "string"
        }
      ],
      "name": "getHashedKeybyDoctor",
      "outputs": [
        {
          "internalType": "bytes32",
          "name": "",
          "type": "bytes32"
        }
      ],
      "stateMutability": "view",
      "type": "function"
    },
    {
      "inputs": [
        {
          "internalType": "string",
          "name": "patientName",
          "type": "string"
        },
        {
          "internalType": "string",
          "name": "labName",
          "type": "string"
        }
      ],
      "name": "getHashedKeybyLabs",
      "outputs": [
        {
          "internalType": "bytes32",
          "name": "",
          "type": "bytes32"
        }
      ],
      "stateMutability": "view",
      "type": "function"
    },
    {
      "inputs": [
        {
          "internalType": "string",
          "name": "patientName",
          "type": "string"
        }
      ],
      "name": "getHashedKeybyPatient",
      "outputs": [
        {
          "internalType": "bytes32",
          "name": "",
          "type": "bytes32"
        }
      ],
      "stateMutability": "view",
      "type": "function"
    },
    {
      "inputs": [
        {
          "internalType": "string",
          "name": "patientName",
          "type": "string"
        },
        {
          "internalType": "string",
          "name": "doctorName",
          "type": "string"
        }
      ],
      "name": "rejectbydocter",
      "outputs": [],
      "stateMutability": "nonpayable",
      "type": "function"
    },
    {
      "inputs": [
        {
          "internalType": "string",
          "name": "doctorName",
          "type": "string"
        }
      ],
      "name": "removeDoctorToTrustedList",
      "outputs": [],
      "stateMutability": "nonpayable",
      "type": "function"
    },
    {
      "inputs": [
        {
          "internalType": "string",
          "name": "labName",
          "type": "string"
        }
      ],
      "name": "removeLabToTrustedList",
      "outputs": [],
      "stateMutability": "nonpayable",
      "type": "function"
    }
  ],
  "bytecode": "0x608060405234801561001057600080fd5b50336000806101000a81548173ffffffffffffffffffffffffffffffffffffffff021916908373ffffffffffffffffffffffffffffffffffffffff160217905550612a19806100606000396000f3fe6080604052600436106100a75760003560e01c806361eac0491161006457806361eac049146101bf5780636d1a180f146101e8578063c71cc4d814610211578063d49785101461023a578063e3d677e414610256578063f434193c1461027f576100a7565b8063094c2f57146100ac5780630be61700146100e957806319709a5f146101125780631acbcf6a1461013b578063210041491461015757806338cc483114610194575b600080fd5b3480156100b857600080fd5b506100d360048036038101906100ce9190611d1b565b6102bc565b6040516100e09190611dac565b60405180910390f35b3480156100f557600080fd5b50610110600480360381019061010b9190611dc7565b6104ab565b005b34801561011e57600080fd5b5061013960048036038101906101349190611d1b565b6105f7565b005b61015560048036038101906101509190611d1b565b6107d4565b005b34801561016357600080fd5b5061017e60048036038101906101799190611d1b565b610a76565b60405161018b9190611dac565b60405180910390f35b3480156101a057600080fd5b506101a9610c65565b6040516101b69190611e51565b60405180910390f35b3480156101cb57600080fd5b506101e660048036038101906101e19190611d1b565b610c6d565b005b3480156101f457600080fd5b5061020f600480360381019061020a9190611d1b565b610ebf565b005b34801561021d57600080fd5b5061023860048036038101906102339190611dc7565b611226565b005b610254600480360381019061024f9190611dc7565b61134c565b005b34801561026257600080fd5b5061027d60048036038101906102789190611dc7565b6115a1565b005b34801561028b57600080fd5b506102a660048036038101906102a19190611dc7565b6116c7565b6040516102b39190611dac565b60405180910390f35b60003373ffffffffffffffffffffffffffffffffffffffff166003836040516102e59190611edd565b908152602001604051809103902060009054906101000a900473ffffffffffffffffffffffffffffffffffffffff1673ffffffffffffffffffffffffffffffffffffffff161461036a576040517f08c379a000000000000000000000000000000000000000000000000000000000815260040161036190611f51565b60405180910390fd5b600060018460405161037c9190611edd565b908152602001604051809103902060009054906101000a900473ffffffffffffffffffffffffffffffffffffffff16905060011515600560008373ffffffffffffffffffffffffffffffffffffffff1673ffffffffffffffffffffffffffffffffffffffff168152602001908152602001600020846040516103fe9190611edd565b908152602001604051809103902060009054906101000a900460ff1615151461045c576040517f08c379a000000000000000000000000000000000000000000000000000000000815260040161045390611fe3565b60405180910390fd5b6000600260008373ffffffffffffffffffffffffffffffffffffffff1673ffffffffffffffffffffffffffffffffffffffff168152602001908152602001600020549050809250505092915050565b60006003826040516104bd9190611edd565b908152602001604051809103902060009054906101000a900473ffffffffffffffffffffffffffffffffffffffff169050600073ffffffffffffffffffffffffffffffffffffffff168173ffffffffffffffffffffffffffffffffffffffff160361058457336003836040516105339190611edd565b908152602001604051809103902060006101000a81548173ffffffffffffffffffffffffffffffffffffffff021916908373ffffffffffffffffffffffffffffffffffffffff1602179055506105f3565b3373ffffffffffffffffffffffffffffffffffffffff168173ffffffffffffffffffffffffffffffffffffffff16146105f2576040517f08c379a00000000000000000000000000000000000000000000000000000000081526004016105e990612075565b60405180910390fd5b5b5050565b600073ffffffffffffffffffffffffffffffffffffffff1660048360405161061f9190611edd565b908152602001604051809103902060009054906101000a900473ffffffffffffffffffffffffffffffffffffffff1673ffffffffffffffffffffffffffffffffffffffff16036106a4576040517f08c379a000000000000000000000000000000000000000000000000000000000815260040161069b906120e1565b60405180910390fd5b6106ad8161184c565b60001515600660003373ffffffffffffffffffffffffffffffffffffffff1673ffffffffffffffffffffffffffffffffffffffff168152602001908152602001600020836040516106fe9190611edd565b908152602001604051809103902060009054906101000a900460ff1615151461075c576040517f08c379a00000000000000000000000000000000000000000000000000000000081526004016107539061214d565b60405180910390fd5b6001600660003373ffffffffffffffffffffffffffffffffffffffff1673ffffffffffffffffffffffffffffffffffffffff168152602001908152602001600020836040516107ab9190611edd565b908152602001604051809103902060006101000a81548160ff0219169083151502179055505050565b600073ffffffffffffffffffffffffffffffffffffffff166003826040516107fc9190611edd565b908152602001604051809103902060009054906101000a900473ffffffffffffffffffffffffffffffffffffffff1673ffffffffffffffffffffffffffffffffffffffff1603610881576040517f08c379a0000000000000000000000000000000000000000000000000000000008152600401610878906121b9565b60405180910390fd5b600034116108c4576040517f08c379a00000000000000000000000000000000000000000000000000000000081526004016108bb90612225565b60405180910390fd5b6108cd8261184c565b6108d681611a67565b6108de611b88565b600181600001901515908115158152505033816020019073ffffffffffffffffffffffffffffffffffffffff16908173ffffffffffffffffffffffffffffffffffffffff168152505034816040018181525050600015156007846040516109459190611edd565b9081526020016040518091039020836040516109619190611edd565b908152602001604051809103902060000160009054906101000a900460ff161515146109c2576040517f08c379a00000000000000000000000000000000000000000000000000000000081526004016109b9906122dd565b60405180910390fd5b806007846040516109d39190611edd565b9081526020016040518091039020836040516109ef9190611edd565b908152602001604051809103902060008201518160000160006101000a81548160ff02191690831515021790555060208201518160000160016101000a81548173ffffffffffffffffffffffffffffffffffffffff021916908373ffffffffffffffffffffffffffffffffffffffff16021790555060408201518160010155905050505050565b60003373ffffffffffffffffffffffffffffffffffffffff16600483604051610a9f9190611edd565b908152602001604051809103902060009054906101000a900473ffffffffffffffffffffffffffffffffffffffff1673ffffffffffffffffffffffffffffffffffffffff1614610b24576040517f08c379a0000000000000000000000000000000000000000000000000000000008152600401610b1b90612349565b60405180910390fd5b6000600184604051610b369190611edd565b908152602001604051809103902060009054906101000a900473ffffffffffffffffffffffffffffffffffffffff16905060011515600660008373ffffffffffffffffffffffffffffffffffffffff1673ffffffffffffffffffffffffffffffffffffffff16815260200190815260200160002084604051610bb89190611edd565b908152602001604051809103902060009054906101000a900460ff16151514610c16576040517f08c379a0000000000000000000000000000000000000000000000000000000008152600401610c0d90611fe3565b60405180910390fd5b6000600260008373ffffffffffffffffffffffffffffffffffffffff1673ffffffffffffffffffffffffffffffffffffffff168152602001908152602001600020549050809250505092915050565b600033905090565b600782604051610c7d9190611edd565b908152602001604051809103902081604051610c999190611edd565b908152602001604051809103902060000160009054906101000a900460ff16610cf7576040517f08c379a0000000000000000000000000000000000000000000000000000000008152600401610cee906123b5565b60405180910390fd5b3373ffffffffffffffffffffffffffffffffffffffff16600382604051610d1e9190611edd565b908152602001604051809103902060009054906101000a900473ffffffffffffffffffffffffffffffffffffffff1673ffffffffffffffffffffffffffffffffffffffff1614610da3576040517f08c379a0000000000000000000000000000000000000000000000000000000008152600401610d9a90612447565b60405180910390fd5b600182604051610db39190611edd565b908152602001604051809103902060009054906101000a900473ffffffffffffffffffffffffffffffffffffffff1673ffffffffffffffffffffffffffffffffffffffff166108fc600784604051610e0b9190611edd565b908152602001604051809103902083604051610e279190611edd565b9081526020016040518091039020600101549081150290604051600060405180830381858888f19350505050158015610e64573d6000803e3d6000fd5b506000600783604051610e779190611edd565b908152602001604051809103902082604051610e939190611edd565b908152602001604051809103902060000160006101000a81548160ff0219169083151502179055505050565b600782604051610ecf9190611edd565b908152602001604051809103902081604051610eeb9190611edd565b908152602001604051809103902060000160009054906101000a900460ff16610f49576040517f08c379a0000000000000000000000000000000000000000000000000000000008152600401610f40906123b5565b60405180910390fd5b3373ffffffffffffffffffffffffffffffffffffffff16600382604051610f709190611edd565b908152602001604051809103902060009054906101000a900473ffffffffffffffffffffffffffffffffffffffff1673ffffffffffffffffffffffffffffffffffffffff1614610ff5576040517f08c379a0000000000000000000000000000000000000000000000000000000008152600401610fec90612447565b60405180910390fd5b60006064604660078560405161100b9190611edd565b9081526020016040518091039020846040516110279190611edd565b90815260200160405180910390206001015461104391906124a0565b61104d9190612511565b90506000816007856040516110629190611edd565b90815260200160405180910390208460405161107e9190611edd565b90815260200160405180910390206001015461109a9190612542565b90506007846040516110ac9190611edd565b9081526020016040518091039020836040516110c89190611edd565b90815260200160405180910390206001015482111561111c576040517f08c379a0000000000000000000000000000000000000000000000000000000008152600401611113906125c2565b60405180910390fd5b3373ffffffffffffffffffffffffffffffffffffffff166108fc839081150290604051600060405180830381858888f19350505050158015611162573d6000803e3d6000fd5b5060008054906101000a900473ffffffffffffffffffffffffffffffffffffffff1673ffffffffffffffffffffffffffffffffffffffff166108fc829081150290604051600060405180830381858888f193505050501580156111c9573d6000803e3d6000fd5b5060006007856040516111dc9190611edd565b9081526020016040518091039020846040516111f89190611edd565b908152602001604051809103902060000160006101000a81548160ff02191690831515021790555050505050565b60011515600560003373ffffffffffffffffffffffffffffffffffffffff1673ffffffffffffffffffffffffffffffffffffffff168152602001908152602001600020826040516112779190611edd565b908152602001604051809103902060009054906101000a900460ff161515146112d5576040517f08c379a00000000000000000000000000000000000000000000000000000000081526004016112cc90612654565b60405180910390fd5b6000600560003373ffffffffffffffffffffffffffffffffffffffff1673ffffffffffffffffffffffffffffffffffffffff168152602001908152602001600020826040516113249190611edd565b908152602001604051809103902060006101000a81548160ff02191690831515021790555050565b600060048260405161135e9190611edd565b908152602001604051809103902060009054906101000a900473ffffffffffffffffffffffffffffffffffffffff1690506702c68af0bb1400003410156113da576040517f08c379a00000000000000000000000000000000000000000000000000000000081526004016113d1906126e6565b60405180910390fd5b600073ffffffffffffffffffffffffffffffffffffffff168173ffffffffffffffffffffffffffffffffffffffff16036114df5760008054906101000a900473ffffffffffffffffffffffffffffffffffffffff1673ffffffffffffffffffffffffffffffffffffffff166108fc6702c68af0bb1400009081150290604051600060405180830381858888f1935050505015801561147c573d6000803e3d6000fd5b503360048360405161148e9190611edd565b908152602001604051809103902060006101000a81548173ffffffffffffffffffffffffffffffffffffffff021916908373ffffffffffffffffffffffffffffffffffffffff16021790555061159d565b3373ffffffffffffffffffffffffffffffffffffffff166108fc6702c68af0bb1400009081150290604051600060405180830381858888f1935050505015801561152d573d6000803e3d6000fd5b503373ffffffffffffffffffffffffffffffffffffffff168173ffffffffffffffffffffffffffffffffffffffff161461159c576040517f08c379a000000000000000000000000000000000000000000000000000000000815260040161159390612778565b60405180910390fd5b5b5050565b60011515600660003373ffffffffffffffffffffffffffffffffffffffff1673ffffffffffffffffffffffffffffffffffffffff168152602001908152602001600020826040516115f29190611edd565b908152602001604051809103902060009054906101000a900460ff16151514611650576040517f08c379a000000000000000000000000000000000000000000000000000000000815260040161164790612654565b60405180910390fd5b6000600660003373ffffffffffffffffffffffffffffffffffffffff1673ffffffffffffffffffffffffffffffffffffffff1681526020019081526020016000208260405161169f9190611edd565b908152602001604051809103902060006101000a81548160ff02191690831515021790555050565b6000806001836040516116da9190611edd565b908152602001604051809103902060009054906101000a900473ffffffffffffffffffffffffffffffffffffffff1690506000600260003373ffffffffffffffffffffffffffffffffffffffff1673ffffffffffffffffffffffffffffffffffffffff1681526020019081526020016000205490506000600260008473ffffffffffffffffffffffffffffffffffffffff1673ffffffffffffffffffffffffffffffffffffffff168152602001908152602001600020549050600073ffffffffffffffffffffffffffffffffffffffff168373ffffffffffffffffffffffffffffffffffffffff16036117d257809350505050611847565b3373ffffffffffffffffffffffffffffffffffffffff168373ffffffffffffffffffffffffffffffffffffffff1614611840576040517f08c379a00000000000000000000000000000000000000000000000000000000081526004016118379061280a565b60405180910390fd5b8193505050505b919050565b600060018260405161185e9190611edd565b908152602001604051809103902060009054906101000a900473ffffffffffffffffffffffffffffffffffffffff169050600073ffffffffffffffffffffffffffffffffffffffff168173ffffffffffffffffffffffffffffffffffffffff16036119f4576000801b600260003373ffffffffffffffffffffffffffffffffffffffff1673ffffffffffffffffffffffffffffffffffffffff1681526020019081526020016000205414611947576040517f08c379a000000000000000000000000000000000000000000000000000000000815260040161193e9061289c565b60405180910390fd5b336001836040516119589190611edd565b908152602001604051809103902060006101000a81548173ffffffffffffffffffffffffffffffffffffffff021916908373ffffffffffffffffffffffffffffffffffffffff1602179055506119ac611b53565b600260003373ffffffffffffffffffffffffffffffffffffffff1673ffffffffffffffffffffffffffffffffffffffff16815260200190815260200160002081905550611a63565b3373ffffffffffffffffffffffffffffffffffffffff168173ffffffffffffffffffffffffffffffffffffffff1614611a62576040517f08c379a0000000000000000000000000000000000000000000000000000000008152600401611a599061292e565b60405180910390fd5b5b5050565b60001515600560003373ffffffffffffffffffffffffffffffffffffffff1673ffffffffffffffffffffffffffffffffffffffff16815260200190815260200160002082604051611ab89190611edd565b908152602001604051809103902060009054906101000a900460ff16151503611b50576001600560003373ffffffffffffffffffffffffffffffffffffffff1673ffffffffffffffffffffffffffffffffffffffff16815260200190815260200160002082604051611b2a9190611edd565b908152602001604051809103902060006101000a81548160ff0219169083151502179055505b50565b6000803342604051602001611b699291906129b7565b6040516020818303038152906040528051906020012090508091505090565b6040518060600160405280600015158152602001600073ffffffffffffffffffffffffffffffffffffffff168152602001600081525090565b6000604051905090565b600080fd5b600080fd5b600080fd5b600080fd5b6000601f19601f8301169050919050565b7f4e487b7100000000000000000000000000000000000000000000000000000000600052604160045260246000fd5b611c2882611bdf565b810181811067ffffffffffffffff82111715611c4757611c46611bf0565b5b80604052505050565b6000611c5a611bc1565b9050611c668282611c1f565b919050565b600067ffffffffffffffff821115611c8657611c85611bf0565b5b611c8f82611bdf565b9050602081019050919050565b82818337600083830152505050565b6000611cbe611cb984611c6b565b611c50565b905082815260208101848484011115611cda57611cd9611bda565b5b611ce5848285611c9c565b509392505050565b600082601f830112611d0257611d01611bd5565b5b8135611d12848260208601611cab565b91505092915050565b60008060408385031215611d3257611d31611bcb565b5b600083013567ffffffffffffffff811115611d5057611d4f611bd0565b5b611d5c85828601611ced565b925050602083013567ffffffffffffffff811115611d7d57611d7c611bd0565b5b611d8985828601611ced565b9150509250929050565b6000819050919050565b611da681611d93565b82525050565b6000602082019050611dc16000830184611d9d565b92915050565b600060208284031215611ddd57611ddc611bcb565b5b600082013567ffffffffffffffff811115611dfb57611dfa611bd0565b5b611e0784828501611ced565b91505092915050565b600073ffffffffffffffffffffffffffffffffffffffff82169050919050565b6000611e3b82611e10565b9050919050565b611e4b81611e30565b82525050565b6000602082019050611e666000830184611e42565b92915050565b600081519050919050565b600081905092915050565b60005b83811015611ea0578082015181840152602081019050611e85565b60008484015250505050565b6000611eb782611e6c565b611ec18185611e77565b9350611ed1818560208601611e82565b80840191505092915050565b6000611ee98284611eac565b915081905092915050565b600082825260208201905092915050565b7f446f63746f72206163636f756e7420646f65736e6f74206d6174636800000000600082015250565b6000611f3b601c83611ef4565b9150611f4682611f05565b602082019050919050565b60006020820190508181036000830152611f6a81611f2e565b9050919050565b7f536f72727920796f7520617265206e6f7420696e2074727573746564206c697360008201527f7400000000000000000000000000000000000000000000000000000000000000602082015250565b6000611fcd602183611ef4565b9150611fd882611f71565b604082019050919050565b60006020820190508181036000830152611ffc81611fc0565b9050919050565b7f446f63746f72206e616d6520616c72656164792072656769737465726564207760008201527f697468206120646966666572656e742061646472657373000000000000000000602082015250565b600061205f603783611ef4565b915061206a82612003565b604082019050919050565b6000602082019050818103600083015261208e81612052565b9050919050565b7f4e6f206c616220776974682074686973206e616d652065786974730000000000600082015250565b60006120cb601b83611ef4565b91506120d682612095565b602082019050919050565b600060208201905081810360008301526120fa816120be565b9050919050565b7f416c726561647920616464656420746f207472757374206c6973740000000000600082015250565b6000612137601b83611ef4565b915061214282612101565b602082019050919050565b600060208201905081810360008301526121668161212a565b9050919050565b7f4e6f20446f63746f7220776974682074686973206e616d652065786974730000600082015250565b60006121a3601e83611ef4565b91506121ae8261216d565b602082019050919050565b600060208201905081810360008301526121d281612196565b9050919050565b7f506c6561736520706179206d6f7265207468616e203020657468657200000000600082015250565b600061220f601c83611ef4565b915061221a826121d9565b602082019050919050565b6000602082019050818103600083015261223e81612202565b9050919050565b7f596f752068616420616c72656164792020626f6f6b6564206170706f696e6d6560008201527f6e74202077697468207468697320646f63746f7220616e64206974206973207060208201527f656e64696e672000000000000000000000000000000000000000000000000000604082015250565b60006122c7604783611ef4565b91506122d282612245565b606082019050919050565b600060208201905081810360008301526122f6816122ba565b9050919050565b7f4c6162206163636f756e7420646f65736e6f74206d6174636800000000000000600082015250565b6000612333601983611ef4565b915061233e826122fd565b602082019050919050565b6000602082019050818103600083015261236281612326565b9050919050565b7f4e6f2070656e64696e67207061796d656e742065786974730000000000000000600082015250565b600061239f601883611ef4565b91506123aa82612369565b602082019050919050565b600060208201905081810360008301526123ce81612392565b9050919050565b7f596f7520617265206e6f7420746865207265676973746572656420646f63746560008201527f7200000000000000000000000000000000000000000000000000000000000000602082015250565b6000612431602183611ef4565b915061243c826123d5565b604082019050919050565b6000602082019050818103600083015261246081612424565b9050919050565b6000819050919050565b7f4e487b7100000000000000000000000000000000000000000000000000000000600052601160045260246000fd5b60006124ab82612467565b91506124b683612467565b92508282026124c481612467565b915082820484148315176124db576124da612471565b5b5092915050565b7f4e487b7100000000000000000000000000000000000000000000000000000000600052601260045260246000fd5b600061251c82612467565b915061252783612467565b925082612537576125366124e2565b5b828204905092915050565b600061254d82612467565b915061255883612467565b92508282039050818111156125705761256f612471565b5b92915050565b7f496e73756666696369656e742070656e64696e67207061796d656e7400000000600082015250565b60006125ac601c83611ef4565b91506125b782612576565b602082019050919050565b600060208201905081810360008301526125db8161259f565b9050919050565b7f5573657220726567697374657265642077697468206469666572656e7420616360008201527f636f756e74000000000000000000000000000000000000000000000000000000602082015250565b600061263e602583611ef4565b9150612649826125e2565b604082019050919050565b6000602082019050818103600083015261266d81612631565b9050919050565b7f506c656173652070617920302e3220657468657220666f72207265676973747260008201527f6174696f6e000000000000000000000000000000000000000000000000000000602082015250565b60006126d0602583611ef4565b91506126db82612674565b604082019050919050565b600060208201905081810360008301526126ff816126c3565b9050919050565b7f4c6162206e616d6520616c72656164792072656769737465726564207769746860008201527f206120646966666572656e742061646472657373000000000000000000000000602082015250565b6000612762603483611ef4565b915061276d82612706565b604082019050919050565b6000602082019050818103600083015261279181612755565b9050919050565b7f5573657220697320616c7265616479207265676973746572656420776974682060008201527f6120646966666572656e74206164647265737300000000000000000000000000602082015250565b60006127f4603383611ef4565b91506127ff82612798565b604082019050919050565b60006020820190508181036000830152612823816127e7565b9050919050565b7f546865206163636f756e74207769746820646966666572656e7420757365722060008201527f6e616d6520697320616c72656164792074616b656e2100000000000000000000602082015250565b6000612886603683611ef4565b91506128918261282a565b604082019050919050565b600060208201905081810360008301526128b581612879565b9050919050565b7f50617469656e74206e616d6520616c726561647920726567697374657265642060008201527f77697468206120646966666572656e7420616464726573730000000000000000602082015250565b6000612918603883611ef4565b9150612923826128bc565b604082019050919050565b600060208201905081810360008301526129478161290b565b9050919050565b60008160601b9050919050565b60006129668261294e565b9050919050565b60006129788261295b565b9050919050565b61299061298b82611e30565b61296d565b82525050565b6000819050919050565b6129b16129ac82612467565b612996565b82525050565b60006129c3828561297f565b6014820191506129d382846129a0565b602082019150819050939250505056fea2646970667358221220f44ce4122caa965f6f141fa60ccdf0d85186a451f9745d2dd84d9bd2bc6aee1664736f6c63430008180033",
  "linkReferences": {},
  "deployedLinkReferences": {}
}