{
  "_format": "hh-sol-artifact-1",
  "contractName": "DoctorPatient",
  "sourceName": "contracts/DoctorPatient.sol",
  "abi": [
    {
      "inputs": [],
      "stateMutability": "nonpayable",
      "type": "constructor"
    },
    {
      "inputs": [
        {
          "internalType": "string",
          "name": "patientName",
          "type": "string"
        },
        {
          "internalType": "string",
          "name": "doctorName",
          "type": "string"
        }
      ],
      "name": "acceptbydocter",
      "outputs": [],
      "stateMutability": "nonpayable",
      "type": "function"
    },
    {
      "inputs": [
        {
          "internalType": "string",
          "name": "doctor",
          "type": "string"
        }
      ],
      "name": "addDoctor",
      "outputs": [],
      "stateMutability": "nonpayable",
      "type": "function"
    },
    {
      "inputs": [
        {
          "internalType": "string",
          "name": "lab",
          "type": "string"
        }
      ],
      "name": "addLab",
      "outputs": [],
      "stateMutability": "payable",
      "type": "function"
    },
    {
      "inputs": [
        {
          "internalType": "string",
          "name": "labName",
          "type": "string"
        },
        {
          "internalType": "string",
          "name": "patientName",
          "type": "string"
        }
      ],
      "name": "addLabToTrustedList",
      "outputs": [],
      "stateMutability": "nonpayable",
      "type": "function"
    },
    {
      "inputs": [
        {
          "internalType": "string",
          "name": "patientName",
          "type": "string"
        },
        {
          "internalType": "string",
          "name": "doctorName",
          "type": "string"
        }
      ],
      "name": "bookAppointment",
      "outputs": [],
      "stateMutability": "payable",
      "type": "function"
    },
    {
      "inputs": [
        {
          "internalType": "string",
          "name": "patientName",
          "type": "string"
        },
        {
          "internalType": "string",
          "name": "doctorName",
          "type": "string"
        }
      ],
      "name": "getHashedKeybyDoctor",
      "outputs": [
        {
          "internalType": "bytes32",
          "name": "",
          "type": "bytes32"
        }
      ],
      "stateMutability": "view",
      "type": "function"
    },
    {
      "inputs": [
        {
          "internalType": "string",
          "name": "patientName",
          "type": "string"
        },
        {
          "internalType": "string",
          "name": "labName",
          "type": "string"
        }
      ],
      "name": "getHashedKeybyLabs",
      "outputs": [
        {
          "internalType": "bytes32",
          "name": "",
          "type": "bytes32"
        }
      ],
      "stateMutability": "view",
      "type": "function"
    },
    {
      "inputs": [],
      "name": "getHashedKeybyPatient",
      "outputs": [
        {
          "internalType": "bytes32",
          "name": "",
          "type": "bytes32"
        }
      ],
      "stateMutability": "view",
      "type": "function"
    },
    {
      "inputs": [
        {
          "internalType": "string",
          "name": "patientName",
          "type": "string"
        },
        {
          "internalType": "string",
          "name": "doctorName",
          "type": "string"
        }
      ],
      "name": "rejectbydocter",
      "outputs": [],
      "stateMutability": "nonpayable",
      "type": "function"
    },
    {
      "inputs": [
        {
          "internalType": "string",
          "name": "doctorName",
          "type": "string"
        }
      ],
      "name": "removeDoctorToTrustedList",
      "outputs": [],
      "stateMutability": "nonpayable",
      "type": "function"
    },
    {
      "inputs": [
        {
          "internalType": "string",
          "name": "labName",
          "type": "string"
        }
      ],
      "name": "removeLabToTrustedList",
      "outputs": [],
      "stateMutability": "nonpayable",
      "type": "function"
    }
  ],
  "bytecode": "0x608060405234801561001057600080fd5b50336000806101000a81548173ffffffffffffffffffffffffffffffffffffffff021916908373ffffffffffffffffffffffffffffffffffffffff16021790555061279a806100606000396000f3fe60806040526004361061009c5760003560e01c80632100414911610064578063210041491461017757806361eac049146101b45780636d1a180f146101dd578063c71cc4d814610206578063d49785101461022f578063e3d677e41461024b5761009c565b8063094c2f57146100a15780630be61700146100de57806319709a5f146101075780631acbcf6a146101305780631c8c5f9e1461014c575b600080fd5b3480156100ad57600080fd5b506100c860048036038101906100c39190611b58565b610274565b6040516100d59190611be9565b60405180910390f35b3480156100ea57600080fd5b5061010560048036038101906101009190611c04565b610463565b005b34801561011357600080fd5b5061012e60048036038101906101299190611b58565b6105af565b005b61014a60048036038101906101459190611b58565b61078c565b005b34801561015857600080fd5b50610161610a2e565b60405161016e9190611be9565b60405180910390f35b34801561018357600080fd5b5061019e60048036038101906101999190611b58565b610a7a565b6040516101ab9190611be9565b60405180910390f35b3480156101c057600080fd5b506101db60048036038101906101d69190611b58565b610c69565b005b3480156101e957600080fd5b5061020460048036038101906101ff9190611b58565b610ebb565b005b34801561021257600080fd5b5061022d60048036038101906102289190611c04565b611222565b005b61024960048036038101906102449190611c04565b61130e565b005b34801561025757600080fd5b50610272600480360381019061026d9190611c04565b611563565b005b60003373ffffffffffffffffffffffffffffffffffffffff1660038360405161029d9190611cbe565b908152602001604051809103902060009054906101000a900473ffffffffffffffffffffffffffffffffffffffff1673ffffffffffffffffffffffffffffffffffffffff1614610322576040517f08c379a000000000000000000000000000000000000000000000000000000000815260040161031990611d32565b60405180910390fd5b60006001846040516103349190611cbe565b908152602001604051809103902060009054906101000a900473ffffffffffffffffffffffffffffffffffffffff16905060011515600560008373ffffffffffffffffffffffffffffffffffffffff1673ffffffffffffffffffffffffffffffffffffffff168152602001908152602001600020846040516103b69190611cbe565b908152602001604051809103902060009054906101000a900460ff16151514610414576040517f08c379a000000000000000000000000000000000000000000000000000000000815260040161040b90611dc4565b60405180910390fd5b6000600260008373ffffffffffffffffffffffffffffffffffffffff1673ffffffffffffffffffffffffffffffffffffffff168152602001908152602001600020549050809250505092915050565b60006003826040516104759190611cbe565b908152602001604051809103902060009054906101000a900473ffffffffffffffffffffffffffffffffffffffff169050600073ffffffffffffffffffffffffffffffffffffffff168173ffffffffffffffffffffffffffffffffffffffff160361053c57336003836040516104eb9190611cbe565b908152602001604051809103902060006101000a81548173ffffffffffffffffffffffffffffffffffffffff021916908373ffffffffffffffffffffffffffffffffffffffff1602179055506105ab565b3373ffffffffffffffffffffffffffffffffffffffff168173ffffffffffffffffffffffffffffffffffffffff16146105aa576040517f08c379a00000000000000000000000000000000000000000000000000000000081526004016105a190611e56565b60405180910390fd5b5b5050565b600073ffffffffffffffffffffffffffffffffffffffff166004836040516105d79190611cbe565b908152602001604051809103902060009054906101000a900473ffffffffffffffffffffffffffffffffffffffff1673ffffffffffffffffffffffffffffffffffffffff160361065c576040517f08c379a000000000000000000000000000000000000000000000000000000000815260040161065390611ec2565b60405180910390fd5b61066581611689565b60001515600660003373ffffffffffffffffffffffffffffffffffffffff1673ffffffffffffffffffffffffffffffffffffffff168152602001908152602001600020836040516106b69190611cbe565b908152602001604051809103902060009054906101000a900460ff16151514610714576040517f08c379a000000000000000000000000000000000000000000000000000000000815260040161070b90611f2e565b60405180910390fd5b6001600660003373ffffffffffffffffffffffffffffffffffffffff1673ffffffffffffffffffffffffffffffffffffffff168152602001908152602001600020836040516107639190611cbe565b908152602001604051809103902060006101000a81548160ff0219169083151502179055505050565b600073ffffffffffffffffffffffffffffffffffffffff166003826040516107b49190611cbe565b908152602001604051809103902060009054906101000a900473ffffffffffffffffffffffffffffffffffffffff1673ffffffffffffffffffffffffffffffffffffffff1603610839576040517f08c379a000000000000000000000000000000000000000000000000000000000815260040161083090611f9a565b60405180910390fd5b6000341161087c576040517f08c379a000000000000000000000000000000000000000000000000000000000815260040161087390612006565b60405180910390fd5b61088582611689565b61088e816118a4565b6108966119c5565b600181600001901515908115158152505033816020019073ffffffffffffffffffffffffffffffffffffffff16908173ffffffffffffffffffffffffffffffffffffffff168152505034816040018181525050600015156007846040516108fd9190611cbe565b9081526020016040518091039020836040516109199190611cbe565b908152602001604051809103902060000160009054906101000a900460ff1615151461097a576040517f08c379a0000000000000000000000000000000000000000000000000000000008152600401610971906120be565b60405180910390fd5b8060078460405161098b9190611cbe565b9081526020016040518091039020836040516109a79190611cbe565b908152602001604051809103902060008201518160000160006101000a81548160ff02191690831515021790555060208201518160000160016101000a81548173ffffffffffffffffffffffffffffffffffffffff021916908373ffffffffffffffffffffffffffffffffffffffff16021790555060408201518160010155905050505050565b600080600260003373ffffffffffffffffffffffffffffffffffffffff1673ffffffffffffffffffffffffffffffffffffffff1681526020019081526020016000205490508091505090565b60003373ffffffffffffffffffffffffffffffffffffffff16600483604051610aa39190611cbe565b908152602001604051809103902060009054906101000a900473ffffffffffffffffffffffffffffffffffffffff1673ffffffffffffffffffffffffffffffffffffffff1614610b28576040517f08c379a0000000000000000000000000000000000000000000000000000000008152600401610b1f9061212a565b60405180910390fd5b6000600184604051610b3a9190611cbe565b908152602001604051809103902060009054906101000a900473ffffffffffffffffffffffffffffffffffffffff16905060011515600660008373ffffffffffffffffffffffffffffffffffffffff1673ffffffffffffffffffffffffffffffffffffffff16815260200190815260200160002084604051610bbc9190611cbe565b908152602001604051809103902060009054906101000a900460ff16151514610c1a576040517f08c379a0000000000000000000000000000000000000000000000000000000008152600401610c1190611dc4565b60405180910390fd5b6000600260008373ffffffffffffffffffffffffffffffffffffffff1673ffffffffffffffffffffffffffffffffffffffff168152602001908152602001600020549050809250505092915050565b600782604051610c799190611cbe565b908152602001604051809103902081604051610c959190611cbe565b908152602001604051809103902060000160009054906101000a900460ff16610cf3576040517f08c379a0000000000000000000000000000000000000000000000000000000008152600401610cea90612196565b60405180910390fd5b3373ffffffffffffffffffffffffffffffffffffffff16600382604051610d1a9190611cbe565b908152602001604051809103902060009054906101000a900473ffffffffffffffffffffffffffffffffffffffff1673ffffffffffffffffffffffffffffffffffffffff1614610d9f576040517f08c379a0000000000000000000000000000000000000000000000000000000008152600401610d9690612228565b60405180910390fd5b600182604051610daf9190611cbe565b908152602001604051809103902060009054906101000a900473ffffffffffffffffffffffffffffffffffffffff1673ffffffffffffffffffffffffffffffffffffffff166108fc600784604051610e079190611cbe565b908152602001604051809103902083604051610e239190611cbe565b9081526020016040518091039020600101549081150290604051600060405180830381858888f19350505050158015610e60573d6000803e3d6000fd5b506000600783604051610e739190611cbe565b908152602001604051809103902082604051610e8f9190611cbe565b908152602001604051809103902060000160006101000a81548160ff0219169083151502179055505050565b600782604051610ecb9190611cbe565b908152602001604051809103902081604051610ee79190611cbe565b908152602001604051809103902060000160009054906101000a900460ff16610f45576040517f08c379a0000000000000000000000000000000000000000000000000000000008152600401610f3c90612196565b60405180910390fd5b3373ffffffffffffffffffffffffffffffffffffffff16600382604051610f6c9190611cbe565b908152602001604051809103902060009054906101000a900473ffffffffffffffffffffffffffffffffffffffff1673ffffffffffffffffffffffffffffffffffffffff1614610ff1576040517f08c379a0000000000000000000000000000000000000000000000000000000008152600401610fe890612228565b60405180910390fd5b6000606460466007856040516110079190611cbe565b9081526020016040518091039020846040516110239190611cbe565b90815260200160405180910390206001015461103f9190612281565b61104991906122f2565b905060008160078560405161105e9190611cbe565b90815260200160405180910390208460405161107a9190611cbe565b9081526020016040518091039020600101546110969190612323565b90506007846040516110a89190611cbe565b9081526020016040518091039020836040516110c49190611cbe565b908152602001604051809103902060010154821115611118576040517f08c379a000000000000000000000000000000000000000000000000000000000815260040161110f906123a3565b60405180910390fd5b3373ffffffffffffffffffffffffffffffffffffffff166108fc839081150290604051600060405180830381858888f1935050505015801561115e573d6000803e3d6000fd5b5060008054906101000a900473ffffffffffffffffffffffffffffffffffffffff1673ffffffffffffffffffffffffffffffffffffffff166108fc829081150290604051600060405180830381858888f193505050501580156111c5573d6000803e3d6000fd5b5060006007856040516111d89190611cbe565b9081526020016040518091039020846040516111f49190611cbe565b908152602001604051809103902060000160006101000a81548160ff02191690831515021790555050505050565b60011515600560003373ffffffffffffffffffffffffffffffffffffffff1673ffffffffffffffffffffffffffffffffffffffff168152602001908152602001600020826040516112739190611cbe565b908152602001604051809103902060009054906101000a900460ff1615150361130b576000600560003373ffffffffffffffffffffffffffffffffffffffff1673ffffffffffffffffffffffffffffffffffffffff168152602001908152602001600020826040516112e59190611cbe565b908152602001604051809103902060006101000a81548160ff0219169083151502179055505b50565b60006004826040516113209190611cbe565b908152602001604051809103902060009054906101000a900473ffffffffffffffffffffffffffffffffffffffff1690506702c68af0bb14000034101561139c576040517f08c379a000000000000000000000000000000000000000000000000000000000815260040161139390612435565b60405180910390fd5b600073ffffffffffffffffffffffffffffffffffffffff168173ffffffffffffffffffffffffffffffffffffffff16036114a15760008054906101000a900473ffffffffffffffffffffffffffffffffffffffff1673ffffffffffffffffffffffffffffffffffffffff166108fc6702c68af0bb1400009081150290604051600060405180830381858888f1935050505015801561143e573d6000803e3d6000fd5b50336004836040516114509190611cbe565b908152602001604051809103902060006101000a81548173ffffffffffffffffffffffffffffffffffffffff021916908373ffffffffffffffffffffffffffffffffffffffff16021790555061155f565b3373ffffffffffffffffffffffffffffffffffffffff166108fc6702c68af0bb1400009081150290604051600060405180830381858888f193505050501580156114ef573d6000803e3d6000fd5b503373ffffffffffffffffffffffffffffffffffffffff168173ffffffffffffffffffffffffffffffffffffffff161461155e576040517f08c379a0000000000000000000000000000000000000000000000000000000008152600401611555906124c7565b60405180910390fd5b5b5050565b60011515600660003373ffffffffffffffffffffffffffffffffffffffff1673ffffffffffffffffffffffffffffffffffffffff168152602001908152602001600020826040516115b49190611cbe565b908152602001604051809103902060009054906101000a900460ff16151514611612576040517f08c379a000000000000000000000000000000000000000000000000000000000815260040161160990612559565b60405180910390fd5b6000600660003373ffffffffffffffffffffffffffffffffffffffff1673ffffffffffffffffffffffffffffffffffffffff168152602001908152602001600020826040516116619190611cbe565b908152602001604051809103902060006101000a81548160ff02191690831515021790555050565b600060018260405161169b9190611cbe565b908152602001604051809103902060009054906101000a900473ffffffffffffffffffffffffffffffffffffffff169050600073ffffffffffffffffffffffffffffffffffffffff168173ffffffffffffffffffffffffffffffffffffffff1603611831576000801b600260003373ffffffffffffffffffffffffffffffffffffffff1673ffffffffffffffffffffffffffffffffffffffff1681526020019081526020016000205414611784576040517f08c379a000000000000000000000000000000000000000000000000000000000815260040161177b906125eb565b60405180910390fd5b336001836040516117959190611cbe565b908152602001604051809103902060006101000a81548173ffffffffffffffffffffffffffffffffffffffff021916908373ffffffffffffffffffffffffffffffffffffffff1602179055506117e9611990565b600260003373ffffffffffffffffffffffffffffffffffffffff1673ffffffffffffffffffffffffffffffffffffffff168152602001908152602001600020819055506118a0565b3373ffffffffffffffffffffffffffffffffffffffff168173ffffffffffffffffffffffffffffffffffffffff161461189f576040517f08c379a00000000000000000000000000000000000000000000000000000000081526004016118969061267d565b60405180910390fd5b5b5050565b60001515600560003373ffffffffffffffffffffffffffffffffffffffff1673ffffffffffffffffffffffffffffffffffffffff168152602001908152602001600020826040516118f59190611cbe565b908152602001604051809103902060009054906101000a900460ff1615150361198d576001600560003373ffffffffffffffffffffffffffffffffffffffff1673ffffffffffffffffffffffffffffffffffffffff168152602001908152602001600020826040516119679190611cbe565b908152602001604051809103902060006101000a81548160ff0219169083151502179055505b50565b60008033426040516020016119a6929190612738565b6040516020818303038152906040528051906020012090508091505090565b6040518060600160405280600015158152602001600073ffffffffffffffffffffffffffffffffffffffff168152602001600081525090565b6000604051905090565b600080fd5b600080fd5b600080fd5b600080fd5b6000601f19601f8301169050919050565b7f4e487b7100000000000000000000000000000000000000000000000000000000600052604160045260246000fd5b611a6582611a1c565b810181811067ffffffffffffffff82111715611a8457611a83611a2d565b5b80604052505050565b6000611a976119fe565b9050611aa38282611a5c565b919050565b600067ffffffffffffffff821115611ac357611ac2611a2d565b5b611acc82611a1c565b9050602081019050919050565b82818337600083830152505050565b6000611afb611af684611aa8565b611a8d565b905082815260208101848484011115611b1757611b16611a17565b5b611b22848285611ad9565b509392505050565b600082601f830112611b3f57611b3e611a12565b5b8135611b4f848260208601611ae8565b91505092915050565b60008060408385031215611b6f57611b6e611a08565b5b600083013567ffffffffffffffff811115611b8d57611b8c611a0d565b5b611b9985828601611b2a565b925050602083013567ffffffffffffffff811115611bba57611bb9611a0d565b5b611bc685828601611b2a565b9150509250929050565b6000819050919050565b611be381611bd0565b82525050565b6000602082019050611bfe6000830184611bda565b92915050565b600060208284031215611c1a57611c19611a08565b5b600082013567ffffffffffffffff811115611c3857611c37611a0d565b5b611c4484828501611b2a565b91505092915050565b600081519050919050565b600081905092915050565b60005b83811015611c81578082015181840152602081019050611c66565b60008484015250505050565b6000611c9882611c4d565b611ca28185611c58565b9350611cb2818560208601611c63565b80840191505092915050565b6000611cca8284611c8d565b915081905092915050565b600082825260208201905092915050565b7f446f63746f72206163636f756e7420646f65736e6f74206d6174636800000000600082015250565b6000611d1c601c83611cd5565b9150611d2782611ce6565b602082019050919050565b60006020820190508181036000830152611d4b81611d0f565b9050919050565b7f536f72727920796f7520617265206e6f7420696e2074727573746564206c697360008201527f7400000000000000000000000000000000000000000000000000000000000000602082015250565b6000611dae602183611cd5565b9150611db982611d52565b604082019050919050565b60006020820190508181036000830152611ddd81611da1565b9050919050565b7f446f63746f72206e616d6520616c72656164792072656769737465726564207760008201527f697468206120646966666572656e742061646472657373000000000000000000602082015250565b6000611e40603783611cd5565b9150611e4b82611de4565b604082019050919050565b60006020820190508181036000830152611e6f81611e33565b9050919050565b7f4e6f206c616220776974682074686973206e616d652065786974730000000000600082015250565b6000611eac601b83611cd5565b9150611eb782611e76565b602082019050919050565b60006020820190508181036000830152611edb81611e9f565b9050919050565b7f416c726561647920616464656420746f207472757374206c6973740000000000600082015250565b6000611f18601b83611cd5565b9150611f2382611ee2565b602082019050919050565b60006020820190508181036000830152611f4781611f0b565b9050919050565b7f4e6f20446f63746f7220776974682074686973206e616d652065786974730000600082015250565b6000611f84601e83611cd5565b9150611f8f82611f4e565b602082019050919050565b60006020820190508181036000830152611fb381611f77565b9050919050565b7f506c6561736520706179206d6f7265207468616e203020657468657200000000600082015250565b6000611ff0601c83611cd5565b9150611ffb82611fba565b602082019050919050565b6000602082019050818103600083015261201f81611fe3565b9050919050565b7f596f752068616420616c72656164792020626f6f6b6564206170706f696e6d6560008201527f6e74202077697468207468697320646f63746f7220616e64206974206973207060208201527f656e64696e672000000000000000000000000000000000000000000000000000604082015250565b60006120a8604783611cd5565b91506120b382612026565b606082019050919050565b600060208201905081810360008301526120d78161209b565b9050919050565b7f4c6162206163636f756e7420646f65736e6f74206d6174636800000000000000600082015250565b6000612114601983611cd5565b915061211f826120de565b602082019050919050565b6000602082019050818103600083015261214381612107565b9050919050565b7f4e6f2070656e64696e67207061796d656e742065786974730000000000000000600082015250565b6000612180601883611cd5565b915061218b8261214a565b602082019050919050565b600060208201905081810360008301526121af81612173565b9050919050565b7f596f7520617265206e6f7420746865207265676973746572656420646f63746560008201527f7200000000000000000000000000000000000000000000000000000000000000602082015250565b6000612212602183611cd5565b915061221d826121b6565b604082019050919050565b6000602082019050818103600083015261224181612205565b9050919050565b6000819050919050565b7f4e487b7100000000000000000000000000000000000000000000000000000000600052601160045260246000fd5b600061228c82612248565b915061229783612248565b92508282026122a581612248565b915082820484148315176122bc576122bb612252565b5b5092915050565b7f4e487b7100000000000000000000000000000000000000000000000000000000600052601260045260246000fd5b60006122fd82612248565b915061230883612248565b925082612318576123176122c3565b5b828204905092915050565b600061232e82612248565b915061233983612248565b925082820390508181111561235157612350612252565b5b92915050565b7f496e73756666696369656e742070656e64696e67207061796d656e7400000000600082015250565b600061238d601c83611cd5565b915061239882612357565b602082019050919050565b600060208201905081810360008301526123bc81612380565b9050919050565b7f506c656173652070617920302e3220657468657220666f72207265676973747260008201527f6174696f6e000000000000000000000000000000000000000000000000000000602082015250565b600061241f602583611cd5565b915061242a826123c3565b604082019050919050565b6000602082019050818103600083015261244e81612412565b9050919050565b7f4c6162206e616d6520616c72656164792072656769737465726564207769746860008201527f206120646966666572656e742061646472657373000000000000000000000000602082015250565b60006124b1603483611cd5565b91506124bc82612455565b604082019050919050565b600060208201905081810360008301526124e0816124a4565b9050919050565b7f416c72656164792072656d6f766564202066726f6d207468652074727573742060008201527f6c69737400000000000000000000000000000000000000000000000000000000602082015250565b6000612543602483611cd5565b915061254e826124e7565b604082019050919050565b6000602082019050818103600083015261257281612536565b9050919050565b7f546865206163636f756e74207769746820646966666572656e7420757365722060008201527f6e616d6520697320616c72656164792074616b656e2100000000000000000000602082015250565b60006125d5603683611cd5565b91506125e082612579565b604082019050919050565b60006020820190508181036000830152612604816125c8565b9050919050565b7f50617469656e74206e616d6520616c726561647920726567697374657265642060008201527f77697468206120646966666572656e7420616464726573730000000000000000602082015250565b6000612667603883611cd5565b91506126728261260b565b604082019050919050565b600060208201905081810360008301526126968161265a565b9050919050565b600073ffffffffffffffffffffffffffffffffffffffff82169050919050565b60006126c88261269d565b9050919050565b60008160601b9050919050565b60006126e7826126cf565b9050919050565b60006126f9826126dc565b9050919050565b61271161270c826126bd565b6126ee565b82525050565b6000819050919050565b61273261272d82612248565b612717565b82525050565b60006127448285612700565b6014820191506127548284612721565b602082019150819050939250505056fea26469706673582212209e262cbd0a100547b54cdeef492736cda2c498fc71eb19b0a2e5ac48d1caf14e64736f6c63430008130033",
  "linkReferences": {},
  "deployedLinkReferences": {}
}